{
  "_format": "hh-sol-artifact-1",
  "contractName": "NFT",
  "sourceName": "contracts/NFT.sol",
  "abi": [
    {
      "inputs": [],
      "stateMutability": "nonpayable",
      "type": "constructor"
    },
    {
      "inputs": [
        {
          "internalType": "address",
          "name": "sender",
          "type": "address"
        },
        {
          "internalType": "uint256",
          "name": "tokenId",
          "type": "uint256"
        },
        {
          "internalType": "address",
          "name": "owner",
          "type": "address"
        }
      ],
      "name": "ERC721IncorrectOwner",
      "type": "error"
    },
    {
      "inputs": [
        {
          "internalType": "address",
          "name": "operator",
          "type": "address"
        },
        {
          "internalType": "uint256",
          "name": "tokenId",
          "type": "uint256"
        }
      ],
      "name": "ERC721InsufficientApproval",
      "type": "error"
    },
    {
      "inputs": [
        {
          "internalType": "address",
          "name": "approver",
          "type": "address"
        }
      ],
      "name": "ERC721InvalidApprover",
      "type": "error"
    },
    {
      "inputs": [
        {
          "internalType": "address",
          "name": "operator",
          "type": "address"
        }
      ],
      "name": "ERC721InvalidOperator",
      "type": "error"
    },
    {
      "inputs": [
        {
          "internalType": "address",
          "name": "owner",
          "type": "address"
        }
      ],
      "name": "ERC721InvalidOwner",
      "type": "error"
    },
    {
      "inputs": [
        {
          "internalType": "address",
          "name": "receiver",
          "type": "address"
        }
      ],
      "name": "ERC721InvalidReceiver",
      "type": "error"
    },
    {
      "inputs": [
        {
          "internalType": "address",
          "name": "sender",
          "type": "address"
        }
      ],
      "name": "ERC721InvalidSender",
      "type": "error"
    },
    {
      "inputs": [
        {
          "internalType": "uint256",
          "name": "tokenId",
          "type": "uint256"
        }
      ],
      "name": "ERC721NonexistentToken",
      "type": "error"
    },
    {
      "anonymous": false,
      "inputs": [
        {
          "indexed": true,
          "internalType": "address",
          "name": "owner",
          "type": "address"
        },
        {
          "indexed": true,
          "internalType": "address",
          "name": "approved",
          "type": "address"
        },
        {
          "indexed": true,
          "internalType": "uint256",
          "name": "tokenId",
          "type": "uint256"
        }
      ],
      "name": "Approval",
      "type": "event"
    },
    {
      "anonymous": false,
      "inputs": [
        {
          "indexed": true,
          "internalType": "address",
          "name": "owner",
          "type": "address"
        },
        {
          "indexed": true,
          "internalType": "address",
          "name": "operator",
          "type": "address"
        },
        {
          "indexed": false,
          "internalType": "bool",
          "name": "approved",
          "type": "bool"
        }
      ],
      "name": "ApprovalForAll",
      "type": "event"
    },
    {
      "anonymous": false,
      "inputs": [
        {
          "indexed": true,
          "internalType": "address",
          "name": "from",
          "type": "address"
        },
        {
          "indexed": true,
          "internalType": "address",
          "name": "to",
          "type": "address"
        },
        {
          "indexed": true,
          "internalType": "uint256",
          "name": "tokenId",
          "type": "uint256"
        }
      ],
      "name": "Transfer",
      "type": "event"
    },
    {
      "inputs": [
        {
          "internalType": "address",
          "name": "to",
          "type": "address"
        },
        {
          "internalType": "uint256",
          "name": "tokenId",
          "type": "uint256"
        }
      ],
      "name": "approve",
      "outputs": [],
      "stateMutability": "nonpayable",
      "type": "function"
    },
    {
      "inputs": [
        {
          "internalType": "address",
          "name": "owner",
          "type": "address"
        }
      ],
      "name": "balanceOf",
      "outputs": [
        {
          "internalType": "uint256",
          "name": "",
          "type": "uint256"
        }
      ],
      "stateMutability": "view",
      "type": "function"
    },
    {
      "inputs": [
        {
          "internalType": "uint256",
          "name": "tokenId",
          "type": "uint256"
        }
      ],
      "name": "getApproved",
      "outputs": [
        {
          "internalType": "address",
          "name": "",
          "type": "address"
        }
      ],
      "stateMutability": "view",
      "type": "function"
    },
    {
      "inputs": [
        {
          "internalType": "address",
          "name": "owner",
          "type": "address"
        },
        {
          "internalType": "address",
          "name": "operator",
          "type": "address"
        }
      ],
      "name": "isApprovedForAll",
      "outputs": [
        {
          "internalType": "bool",
          "name": "",
          "type": "bool"
        }
      ],
      "stateMutability": "view",
      "type": "function"
    },
    {
      "inputs": [],
      "name": "name",
      "outputs": [
        {
          "internalType": "string",
          "name": "",
          "type": "string"
        }
      ],
      "stateMutability": "view",
      "type": "function"
    },
    {
      "inputs": [
        {
          "internalType": "uint256",
          "name": "tokenId",
          "type": "uint256"
        }
      ],
      "name": "ownerOf",
      "outputs": [
        {
          "internalType": "address",
          "name": "",
          "type": "address"
        }
      ],
      "stateMutability": "view",
      "type": "function"
    },
    {
      "inputs": [
        {
          "internalType": "address",
          "name": "to",
          "type": "address"
        }
      ],
      "name": "safeMint",
      "outputs": [],
      "stateMutability": "nonpayable",
      "type": "function"
    },
    {
      "inputs": [
        {
          "internalType": "address",
          "name": "from",
          "type": "address"
        },
        {
          "internalType": "address",
          "name": "to",
          "type": "address"
        },
        {
          "internalType": "uint256",
          "name": "tokenId",
          "type": "uint256"
        }
      ],
      "name": "safeTransferFrom",
      "outputs": [],
      "stateMutability": "nonpayable",
      "type": "function"
    },
    {
      "inputs": [
        {
          "internalType": "address",
          "name": "from",
          "type": "address"
        },
        {
          "internalType": "address",
          "name": "to",
          "type": "address"
        },
        {
          "internalType": "uint256",
          "name": "tokenId",
          "type": "uint256"
        },
        {
          "internalType": "bytes",
          "name": "data",
          "type": "bytes"
        }
      ],
      "name": "safeTransferFrom",
      "outputs": [],
      "stateMutability": "nonpayable",
      "type": "function"
    },
    {
      "inputs": [
        {
          "internalType": "address",
          "name": "operator",
          "type": "address"
        },
        {
          "internalType": "bool",
          "name": "approved",
          "type": "bool"
        }
      ],
      "name": "setApprovalForAll",
      "outputs": [],
      "stateMutability": "nonpayable",
      "type": "function"
    },
    {
      "inputs": [
        {
          "internalType": "bytes4",
          "name": "interfaceId",
          "type": "bytes4"
        }
      ],
      "name": "supportsInterface",
      "outputs": [
        {
          "internalType": "bool",
          "name": "",
          "type": "bool"
        }
      ],
      "stateMutability": "view",
      "type": "function"
    },
    {
      "inputs": [],
      "name": "symbol",
      "outputs": [
        {
          "internalType": "string",
          "name": "",
          "type": "string"
        }
      ],
      "stateMutability": "view",
      "type": "function"
    },
    {
      "inputs": [
        {
          "internalType": "uint256",
          "name": "tokenId",
          "type": "uint256"
        }
      ],
      "name": "tokenURI",
      "outputs": [
        {
          "internalType": "string",
          "name": "",
          "type": "string"
        }
      ],
      "stateMutability": "view",
      "type": "function"
    },
    {
      "inputs": [
        {
          "internalType": "address",
          "name": "from",
          "type": "address"
        },
        {
          "internalType": "address",
          "name": "to",
          "type": "address"
        },
        {
          "internalType": "uint256",
          "name": "tokenId",
          "type": "uint256"
        }
      ],
      "name": "transferFrom",
      "outputs": [],
      "stateMutability": "nonpayable",
      "type": "function"
    }
  ],
  "bytecode": "0x60806040523480156200001157600080fd5b5060405180604001604052806005815260200164135e53919560da1b815250604051806040016040528060048152602001631353919560e21b81525081600090816200005e91906200011b565b5060016200006d82826200011b565b505050620001e7565b634e487b7160e01b600052604160045260246000fd5b600181811c90821680620000a157607f821691505b602082108103620000c257634e487b7160e01b600052602260045260246000fd5b50919050565b601f8211156200011657600081815260208120601f850160051c81016020861015620000f15750805b601f850160051c820191505b818110156200011257828155600101620000fd565b5050505b505050565b81516001600160401b0381111562000137576200013762000076565b6200014f816200014884546200008c565b84620000c8565b602080601f8311600181146200018757600084156200016e5750858301515b600019600386901b1c1916600185901b17855562000112565b600085815260208120601f198616915b82811015620001b85788860151825594840194600190910190840162000197565b5085821015620001d75787850151600019600388901b60f8161c191681555b5050505050600190811b01905550565b61107080620001f76000396000f3fe608060405234801561001057600080fd5b50600436106100ea5760003560e01c80636352211e1161008c578063a22cb46511610066578063a22cb465146101e1578063b88d4fde146101f4578063c87b56dd14610207578063e985e9c51461021a57600080fd5b80636352211e146101a557806370a08231146101b857806395d89b41146101d957600080fd5b8063095ea7b3116100c8578063095ea7b31461015757806323b872dd1461016c57806340d097c31461017f57806342842e0e1461019257600080fd5b806301ffc9a7146100ef57806306fdde0314610117578063081812fc1461012c575b600080fd5b6101026100fd366004610c3f565b61022d565b60405190151581526020015b60405180910390f35b61011f61027f565b60405161010e9190610cac565b61013f61013a366004610cbf565b610311565b6040516001600160a01b03909116815260200161010e565b61016a610165366004610cf4565b61033a565b005b61016a61017a366004610d1e565b610349565b61016a61018d366004610d5a565b6103d9565b61016a6101a0366004610d1e565b6103f4565b61013f6101b3366004610cbf565b610414565b6101cb6101c6366004610d5a565b61041f565b60405190815260200161010e565b61011f610467565b61016a6101ef366004610d75565b610476565b61016a610202366004610dc7565b610481565b61011f610215366004610cbf565b610498565b610102610228366004610ea3565b610500565b60006001600160e01b031982166380ac58cd60e01b148061025e57506001600160e01b03198216635b5e139f60e01b145b8061027957506301ffc9a760e01b6001600160e01b03198316145b92915050565b60606000805461028e90610ed6565b80601f01602080910402602001604051908101604052809291908181526020018280546102ba90610ed6565b80156103075780601f106102dc57610100808354040283529160200191610307565b820191906000526020600020905b8154815290600101906020018083116102ea57829003601f168201915b5050505050905090565b600061031c8261052e565b506000828152600460205260409020546001600160a01b0316610279565b610345828233610567565b5050565b6001600160a01b03821661037857604051633250574960e11b8152600060048201526024015b60405180910390fd5b6000610385838333610574565b9050836001600160a01b0316816001600160a01b0316146103d3576040516364283d7b60e01b81526001600160a01b038086166004830152602482018490528216604482015260640161036f565b50505050565b6006546103e7816001610f10565b600655610345828261066d565b61040f83838360405180602001604052806000815250610481565b505050565b60006102798261052e565b60006001600160a01b03821661044b576040516322718ad960e21b81526000600482015260240161036f565b506001600160a01b031660009081526003602052604090205490565b60606001805461028e90610ed6565b610345338383610687565b61048c848484610349565b6103d384848484610726565b60606104a38261052e565b5060006104ae61084f565b905060008151116104ce57604051806020016040528060008152506104f9565b806104d88461086f565b6040516020016104e9929190610f31565b6040516020818303038152906040525b9392505050565b6001600160a01b03918216600090815260056020908152604080832093909416825291909152205460ff1690565b6000818152600260205260408120546001600160a01b03168061027957604051637e27328960e01b81526004810184905260240161036f565b61040f8383836001610902565b6000828152600260205260408120546001600160a01b03908116908316156105a1576105a1818486610a08565b6001600160a01b038116156105df576105be600085600080610902565b6001600160a01b038116600090815260036020526040902080546000190190555b6001600160a01b0385161561060e576001600160a01b0385166000908152600360205260409020805460010190555b60008481526002602052604080822080546001600160a01b0319166001600160a01b0389811691821790925591518793918516917fddf252ad1be2c89b69c2b068fc378daa952ba7f163c4a11628f55a4df523b3ef91a4949350505050565b610345828260405180602001604052806000815250610a6c565b6001600160a01b0382166106b957604051630b61174360e31b81526001600160a01b038316600482015260240161036f565b6001600160a01b03838116600081815260056020908152604080832094871680845294825291829020805460ff191686151590811790915591519182527f17307eab39ab6107e8899845ad3d59bd9653f200f220920489ca2b5937696c31910160405180910390a3505050565b6001600160a01b0383163b156103d357604051630a85bd0160e11b81526001600160a01b0384169063150b7a0290610768903390889087908790600401610f70565b6020604051808303816000875af19250505080156107a3575060408051601f3d908101601f191682019092526107a091810190610fad565b60015b61080c573d8080156107d1576040519150601f19603f3d011682016040523d82523d6000602084013e6107d6565b606091505b50805160000361080457604051633250574960e11b81526001600160a01b038516600482015260240161036f565b805181602001fd5b6001600160e01b03198116630a85bd0160e11b1461084857604051633250574960e11b81526001600160a01b038516600482015260240161036f565b5050505050565b60606040518060a0016040528060708152602001610fcb60709139905090565b6060600061087c83610a83565b600101905060008167ffffffffffffffff81111561089c5761089c610db1565b6040519080825280601f01601f1916602001820160405280156108c6576020820181803683370190505b5090508181016020015b600019016f181899199a1a9b1b9c1cb0b131b232b360811b600a86061a8153600a85049450846108d057509392505050565b808061091657506001600160a01b03821615155b156109d85760006109268461052e565b90506001600160a01b038316158015906109525750826001600160a01b0316816001600160a01b031614155b801561096557506109638184610500565b155b1561098e5760405163a9fbf51f60e01b81526001600160a01b038416600482015260240161036f565b81156109d65783856001600160a01b0316826001600160a01b03167f8c5be1e5ebec7d5bd14f71427d1e84f3dd0314c0f7b2291e5b200ac8c7c3b92560405160405180910390a45b505b5050600090815260046020526040902080546001600160a01b0319166001600160a01b0392909216919091179055565b610a13838383610b5b565b61040f576001600160a01b038316610a4157604051637e27328960e01b81526004810182905260240161036f565b60405163177e802f60e01b81526001600160a01b03831660048201526024810182905260440161036f565b610a768383610bc1565b61040f6000848484610726565b60008072184f03e93ff9f4daa797ed6e38ed64bf6a1f0160401b8310610ac25772184f03e93ff9f4daa797ed6e38ed64bf6a1f0160401b830492506040015b6d04ee2d6d415b85acef81000000008310610aee576d04ee2d6d415b85acef8100000000830492506020015b662386f26fc100008310610b0c57662386f26fc10000830492506010015b6305f5e1008310610b24576305f5e100830492506008015b6127108310610b3857612710830492506004015b60648310610b4a576064830492506002015b600a83106102795760010192915050565b60006001600160a01b03831615801590610bb95750826001600160a01b0316846001600160a01b03161480610b955750610b958484610500565b80610bb957506000828152600460205260409020546001600160a01b038481169116145b949350505050565b6001600160a01b038216610beb57604051633250574960e11b81526000600482015260240161036f565b6000610bf983836000610574565b90506001600160a01b0381161561040f576040516339e3563760e11b81526000600482015260240161036f565b6001600160e01b031981168114610c3c57600080fd5b50565b600060208284031215610c5157600080fd5b81356104f981610c26565b60005b83811015610c77578181015183820152602001610c5f565b50506000910152565b60008151808452610c98816020860160208601610c5c565b601f01601f19169290920160200192915050565b6020815260006104f96020830184610c80565b600060208284031215610cd157600080fd5b5035919050565b80356001600160a01b0381168114610cef57600080fd5b919050565b60008060408385031215610d0757600080fd5b610d1083610cd8565b946020939093013593505050565b600080600060608486031215610d3357600080fd5b610d3c84610cd8565b9250610d4a60208501610cd8565b9150604084013590509250925092565b600060208284031215610d6c57600080fd5b6104f982610cd8565b60008060408385031215610d8857600080fd5b610d9183610cd8565b915060208301358015158114610da657600080fd5b809150509250929050565b634e487b7160e01b600052604160045260246000fd5b60008060008060808587031215610ddd57600080fd5b610de685610cd8565b9350610df460208601610cd8565b925060408501359150606085013567ffffffffffffffff80821115610e1857600080fd5b818701915087601f830112610e2c57600080fd5b813581811115610e3e57610e3e610db1565b604051601f8201601f19908116603f01168101908382118183101715610e6657610e66610db1565b816040528281528a6020848701011115610e7f57600080fd5b82602086016020830137600060208483010152809550505050505092959194509250565b60008060408385031215610eb657600080fd5b610ebf83610cd8565b9150610ecd60208401610cd8565b90509250929050565b600181811c90821680610eea57607f821691505b602082108103610f0a57634e487b7160e01b600052602260045260246000fd5b50919050565b8082018082111561027957634e487b7160e01b600052601160045260246000fd5b60008351610f43818460208801610c5c565b835190830190610f57818360208801610c5c565b64173539b7b760d91b9101908152600501949350505050565b6001600160a01b0385811682528416602082015260408101839052608060608201819052600090610fa390830184610c80565b9695505050505050565b600060208284031215610fbf57600080fd5b81516104f981610c2656fe68747470733a2f2f74757271756f6973652d646565702d6261726e61636c652d3633352e6d7970696e6174612e636c6f75642f697066732f516d4e744b50745148566b317561436d3977336f6f5961485068574d354a38524b396368334d343333664c4c764b2f6d657461646174612fa264697066735822122080ccdb8b927212f91d9e196c9d221d3d7d52ed20a47c79a7d0542d4867f7d4c564736f6c63430008140033",
  "linkReferences": {},
  "deployedLinkReferences": {}
}